{
  "contractName": "ERC721Enumerable",
  "abi": [
    {
      "inputs": [],
      "stateMutability": "nonpayable",
      "type": "constructor"
    },
    {
      "anonymous": false,
      "inputs": [
        {
          "indexed": true,
          "internalType": "address",
          "name": "_owner",
          "type": "address"
        },
        {
          "indexed": true,
          "internalType": "address",
          "name": "_approved",
          "type": "address"
        },
        {
          "indexed": true,
          "internalType": "uint256",
          "name": "_tokenId",
          "type": "uint256"
        }
      ],
      "name": "Approval",
      "type": "event"
    },
    {
      "anonymous": false,
      "inputs": [
        {
          "indexed": true,
          "internalType": "address",
          "name": "_from",
          "type": "address"
        },
        {
          "indexed": true,
          "internalType": "address",
          "name": "_to",
          "type": "address"
        },
        {
          "indexed": true,
          "internalType": "uint256",
          "name": "_tokenId",
          "type": "uint256"
        }
      ],
      "name": "Transfer",
      "type": "event"
    },
    {
      "inputs": [
        {
          "internalType": "bytes4",
          "name": "interfaceId",
          "type": "bytes4"
        }
      ],
      "name": "_registerInterface",
      "outputs": [],
      "stateMutability": "nonpayable",
      "type": "function"
    },
    {
      "inputs": [
        {
          "internalType": "address",
          "name": "_to",
          "type": "address"
        },
        {
          "internalType": "uint256",
          "name": "tokenId",
          "type": "uint256"
        }
      ],
      "name": "approve",
      "outputs": [],
      "stateMutability": "nonpayable",
      "type": "function"
    },
    {
      "inputs": [
        {
          "internalType": "address",
          "name": "_owner",
          "type": "address"
        }
      ],
      "name": "balanceOf",
      "outputs": [
        {
          "internalType": "uint256",
          "name": "",
          "type": "uint256"
        }
      ],
      "stateMutability": "view",
      "type": "function"
    },
    {
      "inputs": [
        {
          "internalType": "uint256",
          "name": "_tokenId",
          "type": "uint256"
        }
      ],
      "name": "ownerOf",
      "outputs": [
        {
          "internalType": "address",
          "name": "",
          "type": "address"
        }
      ],
      "stateMutability": "view",
      "type": "function"
    },
    {
      "inputs": [
        {
          "internalType": "bytes4",
          "name": "interfaceId",
          "type": "bytes4"
        }
      ],
      "name": "supportsInterface",
      "outputs": [
        {
          "internalType": "bool",
          "name": "",
          "type": "bool"
        }
      ],
      "stateMutability": "view",
      "type": "function"
    },
    {
      "inputs": [
        {
          "internalType": "address",
          "name": "_from",
          "type": "address"
        },
        {
          "internalType": "address",
          "name": "_to",
          "type": "address"
        },
        {
          "internalType": "uint256",
          "name": "_tokenId",
          "type": "uint256"
        }
      ],
      "name": "transferFrom",
      "outputs": [],
      "stateMutability": "nonpayable",
      "type": "function"
    },
    {
      "inputs": [
        {
          "internalType": "uint256",
          "name": "index",
          "type": "uint256"
        }
      ],
      "name": "tokenByIndex",
      "outputs": [
        {
          "internalType": "uint256",
          "name": "",
          "type": "uint256"
        }
      ],
      "stateMutability": "view",
      "type": "function"
    },
    {
      "inputs": [
        {
          "internalType": "address",
          "name": "owner",
          "type": "address"
        },
        {
          "internalType": "uint256",
          "name": "index",
          "type": "uint256"
        }
      ],
      "name": "tokenOfOwnerByIndex",
      "outputs": [
        {
          "internalType": "uint256",
          "name": "",
          "type": "uint256"
        }
      ],
      "stateMutability": "view",
      "type": "function"
    },
    {
      "inputs": [],
      "name": "totalSupply",
      "outputs": [
        {
          "internalType": "uint256",
          "name": "",
          "type": "uint256"
        }
      ],
      "stateMutability": "view",
      "type": "function"
    }
  ],
  "bytecode": "0x60806040523480156200001157600080fd5b50620000437f01ffc9a7a5cef8baa21ed3c5c0d7e23accb804b619e9333b597f47a0d84076e26200013360201b60201c565b620000b87f22c82707ba960a14c7592ffb6b8cfaa073fed0048a84cc7fa41f6b5bd8e7f2e47f3a6eb71757dfc6e784c1459d26270140c2c147d95ca985c80026fc5301c3eca17f8a7e378434598edc36d108689a030cbc9d7d465de4f74c71bae1028eed6a881b18186200013360201b60201c565b6200012d7f8230223f691b981717299fae9549350a0d894555723531f02108b1f522c1a7977f6da5e1284143cdd2d15038a59bde3be031250f00291d64494c12d967b3a4e0c37fc53637662700e6c65104059db8bba34439e0c32483ab7c34e3ccae52c739549518186200013360201b60201c565b6200028e565b63ffffffff60e01b817bffffffffffffffffffffffffffffffffffffffffffffffffffffffff191614156200019f576040517f08c379a000000000000000000000000000000000000000000000000000000000815260040162000196906200026c565b60405180910390fd5b6001600080837bffffffffffffffffffffffffffffffffffffffffffffffffffffffff19167bffffffffffffffffffffffffffffffffffffffffffffffffffffffff1916815260200190815260200160002060006101000a81548160ff02191690831515021790555050565b600082825260208201905092915050565b7f4552433136353a20496e76616c696420496e7465726661636500000000000000600082015250565b6000620002546019836200020b565b915062000261826200021c565b602082019050919050565b60006020820190508181036000830152620002878162000245565b9050919050565b61135c806200029e6000396000f3fe608060405234801561001057600080fd5b50600436106100935760003560e01c806323b872dd1161006657806323b872dd1461011e5780632f745c591461013a5780634f6ccce71461016a5780636352211e1461019a57806370a08231146101ca57610093565b806301ffc9a714610098578063068417d9146100c8578063095ea7b3146100e457806318160ddd14610100575b600080fd5b6100b260048036038101906100ad9190610b91565b6101fa565b6040516100bf9190610bd9565b60405180910390f35b6100e260048036038101906100dd9190610b91565b610261565b005b6100fe60048036038101906100f99190610c88565b610336565b005b6101086104d2565b6040516101159190610cd7565b60405180910390f35b61013860048036038101906101339190610cf2565b6104df565b005b610154600480360381019061014f9190610c88565b610502565b6040516101619190610cd7565b60405180910390f35b610184600480360381019061017f9190610d45565b6105b2565b6040516101919190610cd7565b60405180910390f35b6101b460048036038101906101af9190610d45565b610623565b6040516101c19190610d81565b60405180910390f35b6101e460048036038101906101df9190610d9c565b6106d5565b6040516101f19190610cd7565b60405180910390f35b6000806000837bffffffffffffffffffffffffffffffffffffffffffffffffffffffff19167bffffffffffffffffffffffffffffffffffffffffffffffffffffffff1916815260200190815260200160002060009054906101000a900460ff169050919050565b63ffffffff60e01b817bffffffffffffffffffffffffffffffffffffffffffffffffffffffff191614156102ca576040517f08c379a00000000000000000000000000000000000000000000000000000000081526004016102c190610e26565b60405180910390fd5b6001600080837bffffffffffffffffffffffffffffffffffffffffffffffffffffffff19167bffffffffffffffffffffffffffffffffffffffffffffffffffffffff1916815260200190815260200160002060006101000a81548160ff02191690831515021790555050565b600061034182610623565b90508073ffffffffffffffffffffffffffffffffffffffff168373ffffffffffffffffffffffffffffffffffffffff1614156103b2576040517f08c379a00000000000000000000000000000000000000000000000000000000081526004016103a990610eb8565b60405180910390fd5b8073ffffffffffffffffffffffffffffffffffffffff163373ffffffffffffffffffffffffffffffffffffffff1614610420576040517f08c379a000000000000000000000000000000000000000000000000000000000815260040161041790610f4a565b60405180910390fd5b826003600084815260200190815260200160002060006101000a81548173ffffffffffffffffffffffffffffffffffffffff021916908373ffffffffffffffffffffffffffffffffffffffff160217905550818373ffffffffffffffffffffffffffffffffffffffff168273ffffffffffffffffffffffffffffffffffffffff167f8c5be1e5ebec7d5bd14f71427d1e84f3dd0314c0f7b2291e5b200ac8c7c3b92560405160405180910390a4505050565b6000600480549050905090565b6104e93382610794565b6104f257600080fd5b6104fd838383610823565b505050565b600061050d836106d5565b821061054e576040517f08c379a000000000000000000000000000000000000000000000000000000000815260040161054590610fb6565b60405180910390fd5b600660008473ffffffffffffffffffffffffffffffffffffffff1673ffffffffffffffffffffffffffffffffffffffff168152602001908152602001600020828154811061059f5761059e610fd6565b5b9060005260206000200154905092915050565b60006105bc6104d2565b82106105fd576040517f08c379a00000000000000000000000000000000000000000000000000000000081526004016105f490611051565b60405180910390fd5b6004828154811061061157610610610fd6565b5b90600052602060002001549050919050565b6000806001600084815260200190815260200160002060009054906101000a900473ffffffffffffffffffffffffffffffffffffffff169050600073ffffffffffffffffffffffffffffffffffffffff168173ffffffffffffffffffffffffffffffffffffffff1614156106cc576040517f08c379a00000000000000000000000000000000000000000000000000000000081526004016106c3906110e3565b60405180910390fd5b80915050919050565b60008073ffffffffffffffffffffffffffffffffffffffff168273ffffffffffffffffffffffffffffffffffffffff161415610746576040517f08c379a000000000000000000000000000000000000000000000000000000000815260040161073d906110e3565b60405180910390fd5b61078d600260008473ffffffffffffffffffffffffffffffffffffffff1673ffffffffffffffffffffffffffffffffffffffff168152602001908152602001600020610a13565b9050919050565b600061079f82610a21565b6107de576040517f08c379a00000000000000000000000000000000000000000000000000000000081526004016107d59061114f565b60405180910390fd5b60006107e983610623565b90508073ffffffffffffffffffffffffffffffffffffffff168473ffffffffffffffffffffffffffffffffffffffff161491505092915050565b600073ffffffffffffffffffffffffffffffffffffffff168273ffffffffffffffffffffffffffffffffffffffff161415610893576040517f08c379a000000000000000000000000000000000000000000000000000000000815260040161088a906111e1565b60405180910390fd5b8273ffffffffffffffffffffffffffffffffffffffff166108b382610623565b73ffffffffffffffffffffffffffffffffffffffff16146108d357600080fd5b61091a600260008573ffffffffffffffffffffffffffffffffffffffff1673ffffffffffffffffffffffffffffffffffffffff168152602001908152602001600020610a93565b610961600260008473ffffffffffffffffffffffffffffffffffffffff1673ffffffffffffffffffffffffffffffffffffffff168152602001908152602001600020610ab6565b816001600083815260200190815260200160002060006101000a81548173ffffffffffffffffffffffffffffffffffffffff021916908373ffffffffffffffffffffffffffffffffffffffff160217905550808273ffffffffffffffffffffffffffffffffffffffff168473ffffffffffffffffffffffffffffffffffffffff167fddf252ad1be2c89b69c2b068fc378daa952ba7f163c4a11628f55a4df523b3ef60405160405180910390a4505050565b600081600001549050919050565b6000806001600084815260200190815260200160002060009054906101000a900473ffffffffffffffffffffffffffffffffffffffff169050600073ffffffffffffffffffffffffffffffffffffffff168173ffffffffffffffffffffffffffffffffffffffff161415915050919050565b610aab60018260000154610ad590919063ffffffff16565b816000018190555050565b6001816000016000828254610acb9190611230565b9250508190555050565b600082821115610b1a576040517f08c379a0000000000000000000000000000000000000000000000000000000008152600401610b11906112d2565b60405180910390fd5b60008284610b2891906112f2565b90508091505092915050565b600080fd5b60007fffffffff0000000000000000000000000000000000000000000000000000000082169050919050565b610b6e81610b39565b8114610b7957600080fd5b50565b600081359050610b8b81610b65565b92915050565b600060208284031215610ba757610ba6610b34565b5b6000610bb584828501610b7c565b91505092915050565b60008115159050919050565b610bd381610bbe565b82525050565b6000602082019050610bee6000830184610bca565b92915050565b600073ffffffffffffffffffffffffffffffffffffffff82169050919050565b6000610c1f82610bf4565b9050919050565b610c2f81610c14565b8114610c3a57600080fd5b50565b600081359050610c4c81610c26565b92915050565b6000819050919050565b610c6581610c52565b8114610c7057600080fd5b50565b600081359050610c8281610c5c565b92915050565b60008060408385031215610c9f57610c9e610b34565b5b6000610cad85828601610c3d565b9250506020610cbe85828601610c73565b9150509250929050565b610cd181610c52565b82525050565b6000602082019050610cec6000830184610cc8565b92915050565b600080600060608486031215610d0b57610d0a610b34565b5b6000610d1986828701610c3d565b9350506020610d2a86828701610c3d565b9250506040610d3b86828701610c73565b9150509250925092565b600060208284031215610d5b57610d5a610b34565b5b6000610d6984828501610c73565b91505092915050565b610d7b81610c14565b82525050565b6000602082019050610d966000830184610d72565b92915050565b600060208284031215610db257610db1610b34565b5b6000610dc084828501610c3d565b91505092915050565b600082825260208201905092915050565b7f4552433136353a20496e76616c696420496e7465726661636500000000000000600082015250565b6000610e10601983610dc9565b9150610e1b82610dda565b602082019050919050565b60006020820190508181036000830152610e3f81610e03565b9050919050565b7f4572726f72202d20617070726f76616c20746f2063757272656e74206f776e6560008201527f7200000000000000000000000000000000000000000000000000000000000000602082015250565b6000610ea2602183610dc9565b9150610ead82610e46565b604082019050919050565b60006020820190508181036000830152610ed181610e95565b9050919050565b7f43757272656e742063616c6c6572206973206e6f7420746865206f776e65722060008201527f6f662074686520746f6b656e0000000000000000000000000000000000000000602082015250565b6000610f34602c83610dc9565b9150610f3f82610ed8565b604082019050919050565b60006020820190508181036000830152610f6381610f27565b9050919050565b7f4f776e657220696e646578206973206f7574206f6620626f756e647300000000600082015250565b6000610fa0601c83610dc9565b9150610fab82610f6a565b602082019050919050565b60006020820190508181036000830152610fcf81610f93565b9050919050565b7f4e487b7100000000000000000000000000000000000000000000000000000000600052603260045260246000fd5b7f476c6f62616c20696e646578206973206f7574206f6620626f756e6473000000600082015250565b600061103b601d83610dc9565b915061104682611005565b602082019050919050565b6000602082019050818103600083015261106a8161102e565b9050919050565b7f4f776e657220717565727920666f72206e6f6e2d6578697374656e7420746f6b60008201527f656e000000000000000000000000000000000000000000000000000000000000602082015250565b60006110cd602283610dc9565b91506110d882611071565b604082019050919050565b600060208201905081810360008301526110fc816110c0565b9050919050565b7f546f6b656e20646f6573206e6f74206578697374000000000000000000000000600082015250565b6000611139601483610dc9565b915061114482611103565b602082019050919050565b600060208201905081810360008301526111688161112c565b9050919050565b7f4572726f72202d20455243373231205472616e7366657220746f20746865207a60008201527f65726f2061646472657373000000000000000000000000000000000000000000602082015250565b60006111cb602b83610dc9565b91506111d68261116f565b604082019050919050565b600060208201905081810360008301526111fa816111be565b9050919050565b7f4e487b7100000000000000000000000000000000000000000000000000000000600052601160045260246000fd5b600061123b82610c52565b915061124683610c52565b9250827fffffffffffffffffffffffffffffffffffffffffffffffffffffffffffffffff0382111561127b5761127a611201565b5b828201905092915050565b7f536166654d6174683a207375627472616374696f6e206f766572666c6f770000600082015250565b60006112bc601e83610dc9565b91506112c782611286565b602082019050919050565b600060208201905081810360008301526112eb816112af565b9050919050565b60006112fd82610c52565b915061130883610c52565b92508282101561131b5761131a611201565b5b82820390509291505056fea2646970667358221220a51ecc35edc178fbc8a178da31002f46fe3347573ae5b73e1af3c2c0f0ed8fda64736f6c634300080a0033",
  "immutableReferences": {},
  "source": "// SPDX-License-Identifier: MIT\npragma solidity ^0.8.0;\n\nimport './ERC721.sol';\nimport './interfaces/IERC721Enumerable.sol';\n\ncontract ERC721Enumerable is ERC721, IERC721Enumerable{\n    uint256[] private _allTokens;\n\n    //mapping from tokenId to position in _allTokens array\n    mapping(uint256 => uint256) private _allTokensIndex;\n    //mapping of owner to list of all owner token ids\n    mapping(address => uint256[]) private _ownedTokens;\n    //mapping from tokenid to index of the owner tokens list\n    mapping(uint256 => uint256) private _ownedTokensIndex;\n\n    constructor(){\n        _registerInterface(bytes4(keccak256('totalSupply(bytes4)')^\n        keccak256('tokenByIndex(bytes4)')^keccak256('tokenOfOwnerByIndex(bytes4)')));\n    }\n\n    function _mint(address to, uint256 tokenId) internal override(ERC721){\n        super ._mint(to, tokenId);\n        //add tokens to the owner\n        //all tokens to our totalsupply - to allTokens\n        _addTokensToAllTokenEnumeration(tokenId);\n        _addTokensToOwnerEnumeration(to, tokenId);\n    }\n\n    //add tokens to the _alltokens array and set the position of token indexes\n    function _addTokensToAllTokenEnumeration(uint256 tokenId) private{\n        _allTokensIndex[tokenId] = _allTokens.length;\n        _allTokens.push(tokenId);\n    }\n\n    function _addTokensToOwnerEnumeration(address to, uint256 tokenId) private{\n        //add address and token id to the _ownedTokens\n        _ownedTokens[to].push(tokenId);        \n        //_ownedTokensIndex tokenId set to address of _ownedTokens position\n        _ownedTokensIndex[tokenId] = _ownedTokens[to].length;\n        //execute the function with minting - SEE function _mint\n    }\n\n    //two functions - one that returns tokenByIndex\n    //one that returns tokenOfOwnerByIndex\n\n    function tokenByIndex(uint256 index) public override view returns(uint256){\n        //make sure that the index is not out of bounds of the total supply\n        require(index < totalSupply(), 'Global index is out of bounds');\n        return _allTokens[index];\n    }\n\n    function tokenOfOwnerByIndex(address owner, uint256 index) public override view returns(uint256){\n        require(index < balanceOf(owner), 'Owner index is out of bounds');\n        return _ownedTokens[owner][index];\n    }\n\n    //return the total supply of the _allTokens array\n    function totalSupply() public override view returns(uint256){\n        return _allTokens.length;\n    }\n}",
  "sourcePath": "/home/gokberk/Desktop/nft-bazaar/src/contracts/ERC721Enumerable.sol",
  "compiler": {
    "name": "solc",
    "version": "0.8.10+commit.fc410830.Emscripten.clang"
  },
  "schemaVersion": "3.4.3",
  "updatedAt": "2021-11-26T06:36:59.147Z",
  "devdoc": {
    "kind": "dev",
    "methods": {
      "balanceOf(address)": {
        "details": "NFTs assigned to the zero address are considered invalid, and this  function throws for queries about the zero address.",
        "params": {
          "_owner": "An address for whom to query the balance"
        },
        "returns": {
          "_0": "The number of NFTs owned by `_owner`, possibly zero"
        }
      },
      "ownerOf(uint256)": {
        "details": "NFTs assigned to zero address are considered invalid, and queries  about them do throw.",
        "params": {
          "_tokenId": "The identifier for an NFT"
        },
        "returns": {
          "_0": "The address of the owner of the NFT"
        }
      },
      "totalSupply()": {
        "returns": {
          "_0": "A count of valid NFTs tracked by this contract, where each one of  them has an assigned and queryable owner not equal to the zero address"
        }
      },
      "transferFrom(address,address,uint256)": {
        "details": "Throws unless `msg.sender` is the current owner, an authorized  operator, or the approved address for this NFT. Throws if `_from` is  not the current owner. Throws if `_to` is the zero address. Throws if  `_tokenId` is not a valid NFT.",
        "params": {
          "_from": "The current owner of the NFT",
          "_to": "The new owner",
          "_tokenId": "The NFT to transfer"
        }
      }
    },
    "version": 1
  },
  "userdoc": {
    "kind": "user",
    "methods": {
      "balanceOf(address)": {
        "notice": "Count all NFTs assigned to an owner"
      },
      "ownerOf(uint256)": {
        "notice": "Find the owner of an NFT"
      },
      "totalSupply()": {
        "notice": "Count NFTs tracked by this contract"
      },
      "transferFrom(address,address,uint256)": {
        "notice": "Transfer ownership of an NFT -- THE CALLER IS RESPONSIBLE  TO CONFIRM THAT `_to` IS CAPABLE OF RECEIVING NFTS OR ELSE  THEY MAY BE PERMANENTLY LOST"
      }
    },
    "version": 1
  }
}