{
  "contractName": "ERC721Metadata",
  "abi": [
    {
      "inputs": [
        {
          "internalType": "string",
          "name": "named",
          "type": "string"
        },
        {
          "internalType": "string",
          "name": "symbolified",
          "type": "string"
        }
      ],
      "stateMutability": "nonpayable",
      "type": "constructor"
    },
    {
      "inputs": [
        {
          "internalType": "bytes4",
          "name": "interfaceId",
          "type": "bytes4"
        }
      ],
      "name": "_registerInterface",
      "outputs": [],
      "stateMutability": "nonpayable",
      "type": "function"
    },
    {
      "inputs": [
        {
          "internalType": "bytes4",
          "name": "interfaceId",
          "type": "bytes4"
        }
      ],
      "name": "supportsInterface",
      "outputs": [
        {
          "internalType": "bool",
          "name": "",
          "type": "bool"
        }
      ],
      "stateMutability": "view",
      "type": "function"
    },
    {
      "inputs": [],
      "name": "name",
      "outputs": [
        {
          "internalType": "string",
          "name": "",
          "type": "string"
        }
      ],
      "stateMutability": "view",
      "type": "function"
    },
    {
      "inputs": [],
      "name": "symbol",
      "outputs": [
        {
          "internalType": "string",
          "name": "",
          "type": "string"
        }
      ],
      "stateMutability": "view",
      "type": "function"
    }
  ],
  "bytecode": "0x60806040523480156200001157600080fd5b5060405162000b4e38038062000b4e83398181016040528101906200003791906200041a565b620000687f01ffc9a7a5cef8baa21ed3c5c0d7e23accb804b619e9333b597f47a0d84076e2620000f560201b60201c565b620000bb7f13b182f4c0e5b2efbac0efe6cf6d756c8b89f4b79c5707a043ed9ea740574ee97f7feaf19471f34a12a7eaf32d5f3090aa2260ea8624dc8a138e74e0bf0f62307618620000f560201b60201c565b8160019080519060200190620000d3929190620001cd565b508060029080519060200190620000ec929190620001cd565b50505062000587565b63ffffffff60e01b817bffffffffffffffffffffffffffffffffffffffffffffffffffffffff1916141562000161576040517f08c379a0000000000000000000000000000000000000000000000000000000008152600401620001589062000500565b60405180910390fd5b6001600080837bffffffffffffffffffffffffffffffffffffffffffffffffffffffff19167bffffffffffffffffffffffffffffffffffffffffffffffffffffffff1916815260200190815260200160002060006101000a81548160ff02191690831515021790555050565b828054620001db9062000551565b90600052602060002090601f016020900481019282620001ff57600085556200024b565b82601f106200021a57805160ff19168380011785556200024b565b828001600101855582156200024b579182015b828111156200024a5782518255916020019190600101906200022d565b5b5090506200025a91906200025e565b5090565b5b80821115620002795760008160009055506001016200025f565b5090565b6000604051905090565b600080fd5b600080fd5b600080fd5b600080fd5b6000601f19601f8301169050919050565b7f4e487b7100000000000000000000000000000000000000000000000000000000600052604160045260246000fd5b620002e6826200029b565b810181811067ffffffffffffffff82111715620003085762000307620002ac565b5b80604052505050565b60006200031d6200027d565b90506200032b8282620002db565b919050565b600067ffffffffffffffff8211156200034e576200034d620002ac565b5b62000359826200029b565b9050602081019050919050565b60005b838110156200038657808201518184015260208101905062000369565b8381111562000396576000848401525b50505050565b6000620003b3620003ad8462000330565b62000311565b905082815260208101848484011115620003d257620003d162000296565b5b620003df84828562000366565b509392505050565b600082601f830112620003ff57620003fe62000291565b5b8151620004118482602086016200039c565b91505092915050565b6000806040838503121562000434576200043362000287565b5b600083015167ffffffffffffffff8111156200045557620004546200028c565b5b6200046385828601620003e7565b925050602083015167ffffffffffffffff8111156200048757620004866200028c565b5b6200049585828601620003e7565b9150509250929050565b600082825260208201905092915050565b7f4552433136353a20496e76616c696420496e7465726661636500000000000000600082015250565b6000620004e86019836200049f565b9150620004f582620004b0565b602082019050919050565b600060208201905081810360008301526200051b81620004d9565b9050919050565b7f4e487b7100000000000000000000000000000000000000000000000000000000600052602260045260246000fd5b600060028204905060018216806200056a57607f821691505b6020821081141562000581576200058062000522565b5b50919050565b6105b780620005976000396000f3fe608060405234801561001057600080fd5b506004361061004c5760003560e01c806301ffc9a714610051578063068417d91461008157806306fdde031461009d57806395d89b41146100bb575b600080fd5b61006b60048036038101906100669190610396565b6100d9565b60405161007891906103de565b60405180910390f35b61009b60048036038101906100969190610396565b610140565b005b6100a5610215565b6040516100b29190610492565b60405180910390f35b6100c36102a7565b6040516100d09190610492565b60405180910390f35b6000806000837bffffffffffffffffffffffffffffffffffffffffffffffffffffffff19167bffffffffffffffffffffffffffffffffffffffffffffffffffffffff1916815260200190815260200160002060009054906101000a900460ff169050919050565b63ffffffff60e01b817bffffffffffffffffffffffffffffffffffffffffffffffffffffffff191614156101a9576040517f08c379a00000000000000000000000000000000000000000000000000000000081526004016101a090610500565b60405180910390fd5b6001600080837bffffffffffffffffffffffffffffffffffffffffffffffffffffffff19167bffffffffffffffffffffffffffffffffffffffffffffffffffffffff1916815260200190815260200160002060006101000a81548160ff02191690831515021790555050565b6060600180546102249061054f565b80601f01602080910402602001604051908101604052809291908181526020018280546102509061054f565b801561029d5780601f106102725761010080835404028352916020019161029d565b820191906000526020600020905b81548152906001019060200180831161028057829003601f168201915b5050505050905090565b6060600280546102b69061054f565b80601f01602080910402602001604051908101604052809291908181526020018280546102e29061054f565b801561032f5780601f106103045761010080835404028352916020019161032f565b820191906000526020600020905b81548152906001019060200180831161031257829003601f168201915b5050505050905090565b600080fd5b60007fffffffff0000000000000000000000000000000000000000000000000000000082169050919050565b6103738161033e565b811461037e57600080fd5b50565b6000813590506103908161036a565b92915050565b6000602082840312156103ac576103ab610339565b5b60006103ba84828501610381565b91505092915050565b60008115159050919050565b6103d8816103c3565b82525050565b60006020820190506103f360008301846103cf565b92915050565b600081519050919050565b600082825260208201905092915050565b60005b83811015610433578082015181840152602081019050610418565b83811115610442576000848401525b50505050565b6000601f19601f8301169050919050565b6000610464826103f9565b61046e8185610404565b935061047e818560208601610415565b61048781610448565b840191505092915050565b600060208201905081810360008301526104ac8184610459565b905092915050565b7f4552433136353a20496e76616c696420496e7465726661636500000000000000600082015250565b60006104ea601983610404565b91506104f5826104b4565b602082019050919050565b60006020820190508181036000830152610519816104dd565b9050919050565b7f4e487b7100000000000000000000000000000000000000000000000000000000600052602260045260246000fd5b6000600282049050600182168061056757607f821691505b6020821081141561057b5761057a610520565b5b5091905056fea264697066735822122047debf54d1c8847702b9583caeef467ee9de9f6cf0b44dbdffe0e7d96967622264736f6c634300080a0033",
  "immutableReferences": {},
  "source": "// SPDX-License-Identifier: MIT\npragma solidity ^0.8.0;\n\nimport './interfaces/IERC721Metadata.sol';\nimport './ERC165.sol';\n\ncontract ERC721Metadata is IERC721Metadata, ERC165{\n    string private _name;\n    string private _symbol;\n\n    constructor(string memory named, string memory symbolified){\n        _registerInterface(bytes4(keccak256('name(bytes4)')^\n        keccak256('symbol(bytes4)')));\n\n        _name = named;\n        _symbol = symbolified;\n    }\n\n    function name() external view override returns(string memory){\n        return _name;\n    }\n\n    function symbol() external view override returns(string memory){\n        return _symbol;\n    }\n}",
  "sourcePath": "/home/gokberk/Desktop/nft-bazaar/src/contracts/ERC721Metadata.sol",
  "compiler": {
    "name": "solc",
    "version": "0.8.10+commit.fc410830.Emscripten.clang"
  },
  "schemaVersion": "3.4.3",
  "updatedAt": "2021-11-26T06:36:59.161Z",
  "devdoc": {
    "kind": "dev",
    "methods": {},
    "version": 1
  },
  "userdoc": {
    "kind": "user",
    "methods": {
      "name()": {
        "notice": "A descriptive name for a collection of NFTs in this contract"
      },
      "symbol()": {
        "notice": "An abbreviated name for NFTs in this contract"
      }
    },
    "version": 1
  }
}