{
  "contractName": "nftBazaar",
  "abi": [
    {
      "inputs": [],
      "stateMutability": "nonpayable",
      "type": "constructor"
    },
    {
      "anonymous": false,
      "inputs": [
        {
          "indexed": true,
          "internalType": "address",
          "name": "_owner",
          "type": "address"
        },
        {
          "indexed": true,
          "internalType": "address",
          "name": "_approved",
          "type": "address"
        },
        {
          "indexed": true,
          "internalType": "uint256",
          "name": "_tokenId",
          "type": "uint256"
        }
      ],
      "name": "Approval",
      "type": "event"
    },
    {
      "anonymous": false,
      "inputs": [
        {
          "indexed": true,
          "internalType": "address",
          "name": "_from",
          "type": "address"
        },
        {
          "indexed": true,
          "internalType": "address",
          "name": "_to",
          "type": "address"
        },
        {
          "indexed": true,
          "internalType": "uint256",
          "name": "_tokenId",
          "type": "uint256"
        }
      ],
      "name": "Transfer",
      "type": "event"
    },
    {
      "inputs": [
        {
          "internalType": "bytes4",
          "name": "interfaceId",
          "type": "bytes4"
        }
      ],
      "name": "_registerInterface",
      "outputs": [],
      "stateMutability": "nonpayable",
      "type": "function"
    },
    {
      "inputs": [
        {
          "internalType": "address",
          "name": "_to",
          "type": "address"
        },
        {
          "internalType": "uint256",
          "name": "tokenId",
          "type": "uint256"
        }
      ],
      "name": "approve",
      "outputs": [],
      "stateMutability": "nonpayable",
      "type": "function"
    },
    {
      "inputs": [
        {
          "internalType": "address",
          "name": "_owner",
          "type": "address"
        }
      ],
      "name": "balanceOf",
      "outputs": [
        {
          "internalType": "uint256",
          "name": "",
          "type": "uint256"
        }
      ],
      "stateMutability": "view",
      "type": "function",
      "constant": true
    },
    {
      "inputs": [],
      "name": "name",
      "outputs": [
        {
          "internalType": "string",
          "name": "",
          "type": "string"
        }
      ],
      "stateMutability": "view",
      "type": "function",
      "constant": true
    },
    {
      "inputs": [
        {
          "internalType": "uint256",
          "name": "_tokenId",
          "type": "uint256"
        }
      ],
      "name": "ownerOf",
      "outputs": [
        {
          "internalType": "address",
          "name": "",
          "type": "address"
        }
      ],
      "stateMutability": "view",
      "type": "function",
      "constant": true
    },
    {
      "inputs": [
        {
          "internalType": "bytes4",
          "name": "interfaceId",
          "type": "bytes4"
        }
      ],
      "name": "supportsInterface",
      "outputs": [
        {
          "internalType": "bool",
          "name": "",
          "type": "bool"
        }
      ],
      "stateMutability": "view",
      "type": "function",
      "constant": true
    },
    {
      "inputs": [],
      "name": "symbol",
      "outputs": [
        {
          "internalType": "string",
          "name": "",
          "type": "string"
        }
      ],
      "stateMutability": "view",
      "type": "function",
      "constant": true
    },
    {
      "inputs": [
        {
          "internalType": "uint256",
          "name": "index",
          "type": "uint256"
        }
      ],
      "name": "tokenByIndex",
      "outputs": [
        {
          "internalType": "uint256",
          "name": "",
          "type": "uint256"
        }
      ],
      "stateMutability": "view",
      "type": "function",
      "constant": true
    },
    {
      "inputs": [
        {
          "internalType": "address",
          "name": "owner",
          "type": "address"
        },
        {
          "internalType": "uint256",
          "name": "index",
          "type": "uint256"
        }
      ],
      "name": "tokenOfOwnerByIndex",
      "outputs": [
        {
          "internalType": "uint256",
          "name": "",
          "type": "uint256"
        }
      ],
      "stateMutability": "view",
      "type": "function",
      "constant": true
    },
    {
      "inputs": [
        {
          "internalType": "uint256",
          "name": "",
          "type": "uint256"
        }
      ],
      "name": "tokens",
      "outputs": [
        {
          "internalType": "string",
          "name": "",
          "type": "string"
        }
      ],
      "stateMutability": "view",
      "type": "function",
      "constant": true
    },
    {
      "inputs": [],
      "name": "totalSupply",
      "outputs": [
        {
          "internalType": "uint256",
          "name": "",
          "type": "uint256"
        }
      ],
      "stateMutability": "view",
      "type": "function",
      "constant": true
    },
    {
      "inputs": [
        {
          "internalType": "address",
          "name": "_from",
          "type": "address"
        },
        {
          "internalType": "address",
          "name": "_to",
          "type": "address"
        },
        {
          "internalType": "uint256",
          "name": "_tokenId",
          "type": "uint256"
        }
      ],
      "name": "transferFrom",
      "outputs": [],
      "stateMutability": "nonpayable",
      "type": "function"
    },
    {
      "inputs": [
        {
          "internalType": "string",
          "name": "_token",
          "type": "string"
        }
      ],
      "name": "mint",
      "outputs": [],
      "stateMutability": "nonpayable",
      "type": "function"
    }
  ],
  "bytecode": "0x60806040523480156200001157600080fd5b506040518060400160405280601481526020017f4e6f6e202d2046756e6769626c6520546f6b656e0000000000000000000000008152506040518060400160405280600381526020017f4e465400000000000000000000000000000000000000000000000000000000008152508181620000b17f01ffc9a7a5cef8baa21ed3c5c0d7e23accb804b619e9333b597f47a0d84076e26200022a60201b60201c565b620001047f13b182f4c0e5b2efbac0efe6cf6d756c8b89f4b79c5707a043ed9ea740574ee97f7feaf19471f34a12a7eaf32d5f3090aa2260ea8624dc8a138e74e0bf0f623076186200022a60201b60201c565b81600190805190602001906200011c92919062000302565b5080600290805190602001906200013592919062000302565b505050620001ad7f22c82707ba960a14c7592ffb6b8cfaa073fed0048a84cc7fa41f6b5bd8e7f2e47f3a6eb71757dfc6e784c1459d26270140c2c147d95ca985c80026fc5301c3eca17f8a7e378434598edc36d108689a030cbc9d7d465de4f74c71bae1028eed6a881b18186200022a60201b60201c565b620002227f8230223f691b981717299fae9549350a0d894555723531f02108b1f522c1a7977f6da5e1284143cdd2d15038a59bde3be031250f00291d64494c12d967b3a4e0c37fc53637662700e6c65104059db8bba34439e0c32483ab7c34e3ccae52c739549518186200022a60201b60201c565b50506200049a565b63ffffffff60e01b817bffffffffffffffffffffffffffffffffffffffffffffffffffffffff1916141562000296576040517f08c379a00000000000000000000000000000000000000000000000000000000081526004016200028d9062000413565b60405180910390fd5b6001600080837bffffffffffffffffffffffffffffffffffffffffffffffffffffffff19167bffffffffffffffffffffffffffffffffffffffffffffffffffffffff1916815260200190815260200160002060006101000a81548160ff02191690831515021790555050565b828054620003109062000464565b90600052602060002090601f01602090048101928262000334576000855562000380565b82601f106200034f57805160ff191683800117855562000380565b8280016001018555821562000380579182015b828111156200037f57825182559160200191906001019062000362565b5b5090506200038f919062000393565b5090565b5b80821115620003ae57600081600090555060010162000394565b5090565b600082825260208201905092915050565b7f4552433136353a20496e76616c696420496e7465726661636500000000000000600082015250565b6000620003fb601983620003b2565b91506200040882620003c3565b602082019050919050565b600060208201905081810360008301526200042e81620003ec565b9050919050565b7f4e487b7100000000000000000000000000000000000000000000000000000000600052602260045260246000fd5b600060028204905060018216806200047d57607f821691505b6020821081141562000494576200049362000435565b5b50919050565b611ecb80620004aa6000396000f3fe608060405234801561001057600080fd5b50600436106100cf5760003560e01c80632f745c591161008c5780636352211e116100665780636352211e1461022457806370a082311461025457806395d89b4114610284578063d85d3d27146102a2576100cf565b80632f745c59146101945780634f64b2be146101c45780634f6ccce7146101f4576100cf565b806301ffc9a7146100d4578063068417d91461010457806306fdde0314610120578063095ea7b31461013e57806318160ddd1461015a57806323b872dd14610178575b600080fd5b6100ee60048036038101906100e991906112ba565b6102be565b6040516100fb9190611302565b60405180910390f35b61011e600480360381019061011991906112ba565b610325565b005b6101286103fa565b60405161013591906113b6565b60405180910390f35b6101586004803603810190610153919061146c565b61048c565b005b610162610628565b60405161016f91906114bb565b60405180910390f35b610192600480360381019061018d91906114d6565b610635565b005b6101ae60048036038101906101a9919061146c565b610658565b6040516101bb91906114bb565b60405180910390f35b6101de60048036038101906101d99190611529565b610708565b6040516101eb91906113b6565b60405180910390f35b61020e60048036038101906102099190611529565b6107b4565b60405161021b91906114bb565b60405180910390f35b61023e60048036038101906102399190611529565b610825565b60405161024b9190611565565b60405180910390f35b61026e60048036038101906102699190611580565b6108d7565b60405161027b91906114bb565b60405180910390f35b61028c610996565b60405161029991906113b6565b60405180910390f35b6102bc60048036038101906102b791906116e2565b610a28565b005b6000806000837bffffffffffffffffffffffffffffffffffffffffffffffffffffffff19167bffffffffffffffffffffffffffffffffffffffffffffffffffffffff1916815260200190815260200160002060009054906101000a900460ff169050919050565b63ffffffff60e01b817bffffffffffffffffffffffffffffffffffffffffffffffffffffffff1916141561038e576040517f08c379a000000000000000000000000000000000000000000000000000000000815260040161038590611777565b60405180910390fd5b6001600080837bffffffffffffffffffffffffffffffffffffffffffffffffffffffff19167bffffffffffffffffffffffffffffffffffffffffffffffffffffffff1916815260200190815260200160002060006101000a81548160ff02191690831515021790555050565b606060018054610409906117c6565b80601f0160208091040260200160405190810160405280929190818152602001828054610435906117c6565b80156104825780601f1061045757610100808354040283529160200191610482565b820191906000526020600020905b81548152906001019060200180831161046557829003601f168201915b5050505050905090565b600061049782610825565b90508073ffffffffffffffffffffffffffffffffffffffff168373ffffffffffffffffffffffffffffffffffffffff161415610508576040517f08c379a00000000000000000000000000000000000000000000000000000000081526004016104ff9061186a565b60405180910390fd5b8073ffffffffffffffffffffffffffffffffffffffff163373ffffffffffffffffffffffffffffffffffffffff1614610576576040517f08c379a000000000000000000000000000000000000000000000000000000000815260040161056d906118fc565b60405180910390fd5b826005600084815260200190815260200160002060006101000a81548173ffffffffffffffffffffffffffffffffffffffff021916908373ffffffffffffffffffffffffffffffffffffffff160217905550818373ffffffffffffffffffffffffffffffffffffffff168273ffffffffffffffffffffffffffffffffffffffff167f8c5be1e5ebec7d5bd14f71427d1e84f3dd0314c0f7b2291e5b200ac8c7c3b92560405160405180910390a4505050565b6000600680549050905090565b61063f3382610b2b565b61064857600080fd5b610653838383610bba565b505050565b6000610663836108d7565b82106106a4576040517f08c379a000000000000000000000000000000000000000000000000000000000815260040161069b90611968565b60405180910390fd5b600860008473ffffffffffffffffffffffffffffffffffffffff1673ffffffffffffffffffffffffffffffffffffffff16815260200190815260200160002082815481106106f5576106f4611988565b5b9060005260206000200154905092915050565b600a818154811061071857600080fd5b906000526020600020016000915090508054610733906117c6565b80601f016020809104026020016040519081016040528092919081815260200182805461075f906117c6565b80156107ac5780601f10610781576101008083540402835291602001916107ac565b820191906000526020600020905b81548152906001019060200180831161078f57829003601f168201915b505050505081565b60006107be610628565b82106107ff576040517f08c379a00000000000000000000000000000000000000000000000000000000081526004016107f690611a03565b60405180910390fd5b6006828154811061081357610812611988565b5b90600052602060002001549050919050565b6000806003600084815260200190815260200160002060009054906101000a900473ffffffffffffffffffffffffffffffffffffffff169050600073ffffffffffffffffffffffffffffffffffffffff168173ffffffffffffffffffffffffffffffffffffffff1614156108ce576040517f08c379a00000000000000000000000000000000000000000000000000000000081526004016108c590611a95565b60405180910390fd5b80915050919050565b60008073ffffffffffffffffffffffffffffffffffffffff168273ffffffffffffffffffffffffffffffffffffffff161415610948576040517f08c379a000000000000000000000000000000000000000000000000000000000815260040161093f90611a95565b60405180910390fd5b61098f600460008473ffffffffffffffffffffffffffffffffffffffff1673ffffffffffffffffffffffffffffffffffffffff168152602001908152602001600020610daa565b9050919050565b6060600280546109a5906117c6565b80601f01602080910402602001604051908101604052809291908181526020018280546109d1906117c6565b8015610a1e5780601f106109f357610100808354040283529160200191610a1e565b820191906000526020600020905b815481529060010190602001808311610a0157829003601f168201915b5050505050905090565b600b81604051610a389190611af1565b908152602001604051809103902060009054906101000a900460ff1615610a94576040517f08c379a0000000000000000000000000000000000000000000000000000000008152600401610a8b90611b54565b60405180910390fd5b600a81908060018154018082558091505060019003906000526020600020016000909190919091509080519060200190610acf9291906111ab565b5060006001600a80549050610ae49190611ba3565b9050610af03382610db8565b6001600b83604051610b029190611af1565b908152602001604051809103902060006101000a81548160ff0219169083151502179055505050565b6000610b3682610dd9565b610b75576040517f08c379a0000000000000000000000000000000000000000000000000000000008152600401610b6c90611c23565b60405180910390fd5b6000610b8083610825565b90508073ffffffffffffffffffffffffffffffffffffffff168473ffffffffffffffffffffffffffffffffffffffff161491505092915050565b600073ffffffffffffffffffffffffffffffffffffffff168273ffffffffffffffffffffffffffffffffffffffff161415610c2a576040517f08c379a0000000000000000000000000000000000000000000000000000000008152600401610c2190611cb5565b60405180910390fd5b8273ffffffffffffffffffffffffffffffffffffffff16610c4a82610825565b73ffffffffffffffffffffffffffffffffffffffff1614610c6a57600080fd5b610cb1600460008573ffffffffffffffffffffffffffffffffffffffff1673ffffffffffffffffffffffffffffffffffffffff168152602001908152602001600020610e4b565b610cf8600460008473ffffffffffffffffffffffffffffffffffffffff1673ffffffffffffffffffffffffffffffffffffffff168152602001908152602001600020610e6e565b816003600083815260200190815260200160002060006101000a81548173ffffffffffffffffffffffffffffffffffffffff021916908373ffffffffffffffffffffffffffffffffffffffff160217905550808273ffffffffffffffffffffffffffffffffffffffff168473ffffffffffffffffffffffffffffffffffffffff167fddf252ad1be2c89b69c2b068fc378daa952ba7f163c4a11628f55a4df523b3ef60405160405180910390a4505050565b600081600001549050919050565b610dc28282610e8d565b610dcb8161103f565b610dd58282611088565b5050565b6000806003600084815260200190815260200160002060009054906101000a900473ffffffffffffffffffffffffffffffffffffffff169050600073ffffffffffffffffffffffffffffffffffffffff168173ffffffffffffffffffffffffffffffffffffffff161415915050919050565b610e636001826000015461114c90919063ffffffff16565b816000018190555050565b6001816000016000828254610e839190611cd5565b9250508190555050565b600073ffffffffffffffffffffffffffffffffffffffff168273ffffffffffffffffffffffffffffffffffffffff161415610efd576040517f08c379a0000000000000000000000000000000000000000000000000000000008152600401610ef490611d9d565b60405180910390fd5b610f0681610dd9565b15610f46576040517f08c379a0000000000000000000000000000000000000000000000000000000008152600401610f3d90611e09565b60405180910390fd5b816003600083815260200190815260200160002060006101000a81548173ffffffffffffffffffffffffffffffffffffffff021916908373ffffffffffffffffffffffffffffffffffffffff160217905550610fdf600460008473ffffffffffffffffffffffffffffffffffffffff1673ffffffffffffffffffffffffffffffffffffffff168152602001908152602001600020610e6e565b808273ffffffffffffffffffffffffffffffffffffffff16600073ffffffffffffffffffffffffffffffffffffffff167fddf252ad1be2c89b69c2b068fc378daa952ba7f163c4a11628f55a4df523b3ef60405160405180910390a45050565b6006805490506007600083815260200190815260200160002081905550600681908060018154018082558091505060019003906000526020600020016000909190919091505550565b600860008373ffffffffffffffffffffffffffffffffffffffff1673ffffffffffffffffffffffffffffffffffffffff168152602001908152602001600020819080600181540180825580915050600190039060005260206000200160009091909190915055600860008373ffffffffffffffffffffffffffffffffffffffff1673ffffffffffffffffffffffffffffffffffffffff1681526020019081526020016000208054905060096000838152602001908152602001600020819055505050565b600082821115611191576040517f08c379a000000000000000000000000000000000000000000000000000000000815260040161118890611e75565b60405180910390fd5b6000828461119f9190611ba3565b90508091505092915050565b8280546111b7906117c6565b90600052602060002090601f0160209004810192826111d95760008555611220565b82601f106111f257805160ff1916838001178555611220565b82800160010185558215611220579182015b8281111561121f578251825591602001919060010190611204565b5b50905061122d9190611231565b5090565b5b8082111561124a576000816000905550600101611232565b5090565b6000604051905090565b600080fd5b600080fd5b60007fffffffff0000000000000000000000000000000000000000000000000000000082169050919050565b61129781611262565b81146112a257600080fd5b50565b6000813590506112b48161128e565b92915050565b6000602082840312156112d0576112cf611258565b5b60006112de848285016112a5565b91505092915050565b60008115159050919050565b6112fc816112e7565b82525050565b600060208201905061131760008301846112f3565b92915050565b600081519050919050565b600082825260208201905092915050565b60005b8381101561135757808201518184015260208101905061133c565b83811115611366576000848401525b50505050565b6000601f19601f8301169050919050565b60006113888261131d565b6113928185611328565b93506113a2818560208601611339565b6113ab8161136c565b840191505092915050565b600060208201905081810360008301526113d0818461137d565b905092915050565b600073ffffffffffffffffffffffffffffffffffffffff82169050919050565b6000611403826113d8565b9050919050565b611413816113f8565b811461141e57600080fd5b50565b6000813590506114308161140a565b92915050565b6000819050919050565b61144981611436565b811461145457600080fd5b50565b60008135905061146681611440565b92915050565b6000806040838503121561148357611482611258565b5b600061149185828601611421565b92505060206114a285828601611457565b9150509250929050565b6114b581611436565b82525050565b60006020820190506114d060008301846114ac565b92915050565b6000806000606084860312156114ef576114ee611258565b5b60006114fd86828701611421565b935050602061150e86828701611421565b925050604061151f86828701611457565b9150509250925092565b60006020828403121561153f5761153e611258565b5b600061154d84828501611457565b91505092915050565b61155f816113f8565b82525050565b600060208201905061157a6000830184611556565b92915050565b60006020828403121561159657611595611258565b5b60006115a484828501611421565b91505092915050565b600080fd5b600080fd5b7f4e487b7100000000000000000000000000000000000000000000000000000000600052604160045260246000fd5b6115ef8261136c565b810181811067ffffffffffffffff8211171561160e5761160d6115b7565b5b80604052505050565b600061162161124e565b905061162d82826115e6565b919050565b600067ffffffffffffffff82111561164d5761164c6115b7565b5b6116568261136c565b9050602081019050919050565b82818337600083830152505050565b600061168561168084611632565b611617565b9050828152602081018484840111156116a1576116a06115b2565b5b6116ac848285611663565b509392505050565b600082601f8301126116c9576116c86115ad565b5b81356116d9848260208601611672565b91505092915050565b6000602082840312156116f8576116f7611258565b5b600082013567ffffffffffffffff8111156117165761171561125d565b5b611722848285016116b4565b91505092915050565b7f4552433136353a20496e76616c696420496e7465726661636500000000000000600082015250565b6000611761601983611328565b915061176c8261172b565b602082019050919050565b6000602082019050818103600083015261179081611754565b9050919050565b7f4e487b7100000000000000000000000000000000000000000000000000000000600052602260045260246000fd5b600060028204905060018216806117de57607f821691505b602082108114156117f2576117f1611797565b5b50919050565b7f4572726f72202d20617070726f76616c20746f2063757272656e74206f776e6560008201527f7200000000000000000000000000000000000000000000000000000000000000602082015250565b6000611854602183611328565b915061185f826117f8565b604082019050919050565b6000602082019050818103600083015261188381611847565b9050919050565b7f43757272656e742063616c6c6572206973206e6f7420746865206f776e65722060008201527f6f662074686520746f6b656e0000000000000000000000000000000000000000602082015250565b60006118e6602c83611328565b91506118f18261188a565b604082019050919050565b60006020820190508181036000830152611915816118d9565b9050919050565b7f4f776e657220696e646578206973206f7574206f6620626f756e647300000000600082015250565b6000611952601c83611328565b915061195d8261191c565b602082019050919050565b6000602082019050818103600083015261198181611945565b9050919050565b7f4e487b7100000000000000000000000000000000000000000000000000000000600052603260045260246000fd5b7f476c6f62616c20696e646578206973206f7574206f6620626f756e6473000000600082015250565b60006119ed601d83611328565b91506119f8826119b7565b602082019050919050565b60006020820190508181036000830152611a1c816119e0565b9050919050565b7f4f776e657220717565727920666f72206e6f6e2d6578697374656e7420746f6b60008201527f656e000000000000000000000000000000000000000000000000000000000000602082015250565b6000611a7f602283611328565b9150611a8a82611a23565b604082019050919050565b60006020820190508181036000830152611aae81611a72565b9050919050565b600081905092915050565b6000611acb8261131d565b611ad58185611ab5565b9350611ae5818560208601611339565b80840191505092915050565b6000611afd8284611ac0565b915081905092915050565b7f4572726f72202d20746f6b656e20616c72656164792065786973747300000000600082015250565b6000611b3e601c83611328565b9150611b4982611b08565b602082019050919050565b60006020820190508181036000830152611b6d81611b31565b9050919050565b7f4e487b7100000000000000000000000000000000000000000000000000000000600052601160045260246000fd5b6000611bae82611436565b9150611bb983611436565b925082821015611bcc57611bcb611b74565b5b828203905092915050565b7f546f6b656e20646f6573206e6f74206578697374000000000000000000000000600082015250565b6000611c0d601483611328565b9150611c1882611bd7565b602082019050919050565b60006020820190508181036000830152611c3c81611c00565b9050919050565b7f4572726f72202d20455243373231205472616e7366657220746f20746865207a60008201527f65726f2061646472657373000000000000000000000000000000000000000000602082015250565b6000611c9f602b83611328565b9150611caa82611c43565b604082019050919050565b60006020820190508181036000830152611cce81611c92565b9050919050565b6000611ce082611436565b9150611ceb83611436565b9250827fffffffffffffffffffffffffffffffffffffffffffffffffffffffffffffffff03821115611d2057611d1f611b74565b5b828201905092915050565b7f4552433732313a206d696e74696e6720746f20746865207a65726f206164647260008201527f6573730000000000000000000000000000000000000000000000000000000000602082015250565b6000611d87602383611328565b9150611d9282611d2b565b604082019050919050565b60006020820190508181036000830152611db681611d7a565b9050919050565b7f4552433732313a20746f6b656e20616c7265616479206d696e74656400000000600082015250565b6000611df3601c83611328565b9150611dfe82611dbd565b602082019050919050565b60006020820190508181036000830152611e2281611de6565b9050919050565b7f536166654d6174683a207375627472616374696f6e206f766572666c6f770000600082015250565b6000611e5f601e83611328565b9150611e6a82611e29565b602082019050919050565b60006020820190508181036000830152611e8e81611e52565b905091905056fea26469706673582212207b9f259882a7946ab8ce273ed8c298e20810a6203e1947f589821333f80a52b264736f6c634300080a0033",
  "immutableReferences": {},
  "source": "// SPDX-License-Identifier: MIT\npragma solidity ^0.8.0;\n\nimport './ERC721Connector.sol';\n\ncontract nftBazaar is ERC721Connector{\n    string[] public tokens;\n\n    mapping(string => bool) _tokenExists;\n\n    function mint(string memory _token) public{\n        require(!_tokenExists[_token], 'Error - token already exists');\n        \n        tokens.push(_token);\n        uint256 _id = tokens.length - 1;\n\n        _mint(msg.sender, _id);\n\n        _tokenExists[_token] = true;\n    }\n    constructor() ERC721Connector('Non - Fungible Token', 'NFT'){\n\n    }\n}",
  "sourcePath": "/home/gokberk/Desktop/nft-bazaar/src/contracts/nftBazaar.sol",
  "compiler": {
    "name": "solc",
    "version": "0.8.10+commit.fc410830.Emscripten.clang"
  },
  "schemaVersion": "3.4.3",
  "updatedAt": "2021-11-26T06:41:47.920Z",
  "networkType": "ethereum",
  "devdoc": {
    "kind": "dev",
    "methods": {
      "balanceOf(address)": {
        "details": "NFTs assigned to the zero address are considered invalid, and this  function throws for queries about the zero address.",
        "params": {
          "_owner": "An address for whom to query the balance"
        },
        "returns": {
          "_0": "The number of NFTs owned by `_owner`, possibly zero"
        }
      },
      "ownerOf(uint256)": {
        "details": "NFTs assigned to zero address are considered invalid, and queries  about them do throw.",
        "params": {
          "_tokenId": "The identifier for an NFT"
        },
        "returns": {
          "_0": "The address of the owner of the NFT"
        }
      },
      "totalSupply()": {
        "returns": {
          "_0": "A count of valid NFTs tracked by this contract, where each one of  them has an assigned and queryable owner not equal to the zero address"
        }
      },
      "transferFrom(address,address,uint256)": {
        "details": "Throws unless `msg.sender` is the current owner, an authorized  operator, or the approved address for this NFT. Throws if `_from` is  not the current owner. Throws if `_to` is the zero address. Throws if  `_tokenId` is not a valid NFT.",
        "params": {
          "_from": "The current owner of the NFT",
          "_to": "The new owner",
          "_tokenId": "The NFT to transfer"
        }
      }
    },
    "version": 1
  },
  "userdoc": {
    "kind": "user",
    "methods": {
      "balanceOf(address)": {
        "notice": "Count all NFTs assigned to an owner"
      },
      "name()": {
        "notice": "A descriptive name for a collection of NFTs in this contract"
      },
      "ownerOf(uint256)": {
        "notice": "Find the owner of an NFT"
      },
      "symbol()": {
        "notice": "An abbreviated name for NFTs in this contract"
      },
      "totalSupply()": {
        "notice": "Count NFTs tracked by this contract"
      },
      "transferFrom(address,address,uint256)": {
        "notice": "Transfer ownership of an NFT -- THE CALLER IS RESPONSIBLE  TO CONFIRM THAT `_to` IS CAPABLE OF RECEIVING NFTS OR ELSE  THEY MAY BE PERMANENTLY LOST"
      }
    },
    "version": 1
  }
}